{
  "contractName": "Sale",
  "abi": [
    {
      "inputs": [
        {
          "internalType": "address",
          "name": "_oracle",
          "type": "address"
        },
        {
          "internalType": "address",
          "name": "_usdt",
          "type": "address"
        },
        {
          "internalType": "address",
          "name": "_SaleToken",
          "type": "address"
        },
        {
          "internalType": "uint256",
          "name": "_MinTokenTobuy",
          "type": "uint256"
        }
      ],
      "stateMutability": "nonpayable",
      "type": "constructor"
    },
    {
      "anonymous": false,
      "inputs": [
        {
          "indexed": true,
          "internalType": "address",
          "name": "previousOwner",
          "type": "address"
        },
        {
          "indexed": true,
          "internalType": "address",
          "name": "newOwner",
          "type": "address"
        }
      ],
      "name": "OwnershipTransferred",
      "type": "event"
    },
    {
      "anonymous": false,
      "inputs": [
        {
          "indexed": true,
          "internalType": "uint256",
          "name": "_id",
          "type": "uint256"
        },
        {
          "indexed": false,
          "internalType": "uint256",
          "name": "_totalTokens",
          "type": "uint256"
        },
        {
          "indexed": false,
          "internalType": "uint256",
          "name": "_startTime",
          "type": "uint256"
        },
        {
          "indexed": false,
          "internalType": "uint256",
          "name": "_endTime",
          "type": "uint256"
        }
      ],
      "name": "PresaleCreated",
      "type": "event"
    },
    {
      "anonymous": false,
      "inputs": [
        {
          "indexed": true,
          "internalType": "uint256",
          "name": "id",
          "type": "uint256"
        },
        {
          "indexed": false,
          "internalType": "uint256",
          "name": "timestamp",
          "type": "uint256"
        }
      ],
      "name": "PresalePaused",
      "type": "event"
    },
    {
      "anonymous": false,
      "inputs": [
        {
          "indexed": true,
          "internalType": "address",
          "name": "prevValue",
          "type": "address"
        },
        {
          "indexed": true,
          "internalType": "address",
          "name": "newValue",
          "type": "address"
        },
        {
          "indexed": false,
          "internalType": "uint256",
          "name": "timestamp",
          "type": "uint256"
        }
      ],
      "name": "PresaleTokenAddressUpdated",
      "type": "event"
    },
    {
      "anonymous": false,
      "inputs": [
        {
          "indexed": true,
          "internalType": "uint256",
          "name": "id",
          "type": "uint256"
        },
        {
          "indexed": false,
          "internalType": "uint256",
          "name": "timestamp",
          "type": "uint256"
        }
      ],
      "name": "PresaleUnpaused",
      "type": "event"
    },
    {
      "anonymous": false,
      "inputs": [
        {
          "indexed": true,
          "internalType": "bytes32",
          "name": "key",
          "type": "bytes32"
        },
        {
          "indexed": false,
          "internalType": "uint256",
          "name": "prevValue",
          "type": "uint256"
        },
        {
          "indexed": false,
          "internalType": "uint256",
          "name": "newValue",
          "type": "uint256"
        },
        {
          "indexed": false,
          "internalType": "uint256",
          "name": "timestamp",
          "type": "uint256"
        }
      ],
      "name": "PresaleUpdated",
      "type": "event"
    },
    {
      "anonymous": false,
      "inputs": [
        {
          "indexed": true,
          "internalType": "address",
          "name": "user",
          "type": "address"
        },
        {
          "indexed": true,
          "internalType": "uint256",
          "name": "id",
          "type": "uint256"
        },
        {
          "indexed": true,
          "internalType": "address",
          "name": "purchaseToken",
          "type": "address"
        },
        {
          "indexed": false,
          "internalType": "uint256",
          "name": "tokensBought",
          "type": "uint256"
        },
        {
          "indexed": false,
          "internalType": "uint256",
          "name": "amountPaid",
          "type": "uint256"
        },
        {
          "indexed": false,
          "internalType": "uint256",
          "name": "timestamp",
          "type": "uint256"
        }
      ],
      "name": "TokensBought",
      "type": "event"
    },
    {
      "anonymous": false,
      "inputs": [
        {
          "indexed": true,
          "internalType": "address",
          "name": "user",
          "type": "address"
        },
        {
          "indexed": true,
          "internalType": "uint256",
          "name": "id",
          "type": "uint256"
        },
        {
          "indexed": false,
          "internalType": "uint256",
          "name": "amount",
          "type": "uint256"
        },
        {
          "indexed": false,
          "internalType": "uint256",
          "name": "timestamp",
          "type": "uint256"
        }
      ],
      "name": "TokensClaimed",
      "type": "event"
    },
    {
      "inputs": [],
      "name": "ETH_MULTIPLIER",
      "outputs": [
        {
          "internalType": "uint256",
          "name": "",
          "type": "uint256"
        }
      ],
      "stateMutability": "view",
      "type": "function",
      "constant": true
    },
    {
      "inputs": [],
      "name": "MinTokenTobuy",
      "outputs": [
        {
          "internalType": "uint256",
          "name": "",
          "type": "uint256"
        }
      ],
      "stateMutability": "view",
      "type": "function",
      "constant": true
    },
    {
      "inputs": [],
      "name": "SaleToken",
      "outputs": [
        {
          "internalType": "address",
          "name": "",
          "type": "address"
        }
      ],
      "stateMutability": "view",
      "type": "function",
      "constant": true
    },
    {
      "inputs": [],
      "name": "USDTInterface",
      "outputs": [
        {
          "internalType": "contract IERC20Metadata",
          "name": "",
          "type": "address"
        }
      ],
      "stateMutability": "view",
      "type": "function",
      "constant": true
    },
    {
      "inputs": [],
      "name": "USDT_MULTIPLIER",
      "outputs": [
        {
          "internalType": "uint256",
          "name": "",
          "type": "uint256"
        }
      ],
      "stateMutability": "view",
      "type": "function",
      "constant": true
    },
    {
      "inputs": [],
      "name": "fundReceiver",
      "outputs": [
        {
          "internalType": "address",
          "name": "",
          "type": "address"
        }
      ],
      "stateMutability": "view",
      "type": "function",
      "constant": true
    },
    {
      "inputs": [
        {
          "internalType": "address",
          "name": "",
          "type": "address"
        }
      ],
      "name": "isExcludeMinToken",
      "outputs": [
        {
          "internalType": "bool",
          "name": "",
          "type": "bool"
        }
      ],
      "stateMutability": "view",
      "type": "function",
      "constant": true
    },
    {
      "inputs": [],
      "name": "owner",
      "outputs": [
        {
          "internalType": "address",
          "name": "",
          "type": "address"
        }
      ],
      "stateMutability": "view",
      "type": "function",
      "constant": true
    },
    {
      "inputs": [
        {
          "internalType": "uint256",
          "name": "",
          "type": "uint256"
        }
      ],
      "name": "paused",
      "outputs": [
        {
          "internalType": "bool",
          "name": "",
          "type": "bool"
        }
      ],
      "stateMutability": "view",
      "type": "function",
      "constant": true
    },
    {
      "inputs": [
        {
          "internalType": "uint256",
          "name": "",
          "type": "uint256"
        }
      ],
      "name": "presale",
      "outputs": [
        {
          "internalType": "uint256",
          "name": "startTime",
          "type": "uint256"
        },
        {
          "internalType": "uint256",
          "name": "endTime",
          "type": "uint256"
        },
        {
          "internalType": "uint256",
          "name": "price",
          "type": "uint256"
        },
        {
          "internalType": "uint256",
          "name": "inSale",
          "type": "uint256"
        },
        {
          "internalType": "uint256",
          "name": "tokensToSell",
          "type": "uint256"
        },
        {
          "internalType": "uint256",
          "name": "UsdtHardcap",
          "type": "uint256"
        },
        {
          "internalType": "uint256",
          "name": "amountRaised",
          "type": "uint256"
        },
        {
          "internalType": "bool",
          "name": "Active",
          "type": "bool"
        },
        {
          "internalType": "bool",
          "name": "isEnableClaim",
          "type": "bool"
        }
      ],
      "stateMutability": "view",
      "type": "function",
      "constant": true
    },
    {
      "inputs": [],
      "name": "presaleId",
      "outputs": [
        {
          "internalType": "uint256",
          "name": "",
          "type": "uint256"
        }
      ],
      "stateMutability": "view",
      "type": "function",
      "constant": true
    },
    {
      "inputs": [],
      "name": "renounceOwnership",
      "outputs": [],
      "stateMutability": "nonpayable",
      "type": "function"
    },
    {
      "inputs": [
        {
          "internalType": "address",
          "name": "newOwner",
          "type": "address"
        }
      ],
      "name": "transferOwnership",
      "outputs": [],
      "stateMutability": "nonpayable",
      "type": "function"
    },
    {
      "inputs": [
        {
          "internalType": "address",
          "name": "",
          "type": "address"
        },
        {
          "internalType": "uint256",
          "name": "",
          "type": "uint256"
        }
      ],
      "name": "userClaimData",
      "outputs": [
        {
          "internalType": "uint256",
          "name": "claimAt",
          "type": "uint256"
        },
        {
          "internalType": "uint256",
          "name": "totalAmount",
          "type": "uint256"
        },
        {
          "internalType": "uint256",
          "name": "claimedAmount",
          "type": "uint256"
        }
      ],
      "stateMutability": "view",
      "type": "function",
      "constant": true
    },
    {
      "inputs": [
        {
          "internalType": "address",
          "name": "_token",
          "type": "address"
        }
      ],
      "name": "ChangeTokenToSell",
      "outputs": [],
      "stateMutability": "nonpayable",
      "type": "function"
    },
    {
      "inputs": [
        {
          "internalType": "uint256",
          "name": "_amount",
          "type": "uint256"
        }
      ],
      "name": "EditMinTokenToBuy",
      "outputs": [],
      "stateMutability": "nonpayable",
      "type": "function"
    },
    {
      "inputs": [
        {
          "internalType": "uint256",
          "name": "_price",
          "type": "uint256"
        },
        {
          "internalType": "uint256",
          "name": "_tokensToSell",
          "type": "uint256"
        },
        {
          "internalType": "uint256",
          "name": "_UsdtHardcap",
          "type": "uint256"
        }
      ],
      "name": "createPresale",
      "outputs": [],
      "stateMutability": "nonpayable",
      "type": "function"
    },
    {
      "inputs": [],
      "name": "startPresale",
      "outputs": [],
      "stateMutability": "nonpayable",
      "type": "function"
    },
    {
      "inputs": [],
      "name": "endPresale",
      "outputs": [],
      "stateMutability": "nonpayable",
      "type": "function"
    },
    {
      "inputs": [
        {
          "internalType": "uint256",
          "name": "_id",
          "type": "uint256"
        },
        {
          "internalType": "bool",
          "name": "_status",
          "type": "bool"
        }
      ],
      "name": "enableClaim",
      "outputs": [],
      "stateMutability": "nonpayable",
      "type": "function"
    },
    {
      "inputs": [
        {
          "internalType": "uint256",
          "name": "_id",
          "type": "uint256"
        },
        {
          "internalType": "uint256",
          "name": "_price",
          "type": "uint256"
        },
        {
          "internalType": "uint256",
          "name": "_tokensToSell",
          "type": "uint256"
        },
        {
          "internalType": "uint256",
          "name": "_Hardcap",
          "type": "uint256"
        }
      ],
      "name": "updatePresale",
      "outputs": [],
      "stateMutability": "nonpayable",
      "type": "function"
    },
    {
      "inputs": [
        {
          "internalType": "address",
          "name": "_wallet",
          "type": "address"
        }
      ],
      "name": "changeFundWallet",
      "outputs": [],
      "stateMutability": "nonpayable",
      "type": "function"
    },
    {
      "inputs": [
        {
          "internalType": "address",
          "name": "_newAddress",
          "type": "address"
        }
      ],
      "name": "changeUSDTToken",
      "outputs": [],
      "stateMutability": "nonpayable",
      "type": "function"
    },
    {
      "inputs": [
        {
          "internalType": "uint256",
          "name": "_id",
          "type": "uint256"
        }
      ],
      "name": "pausePresale",
      "outputs": [],
      "stateMutability": "nonpayable",
      "type": "function"
    },
    {
      "inputs": [
        {
          "internalType": "uint256",
          "name": "_id",
          "type": "uint256"
        }
      ],
      "name": "unPausePresale",
      "outputs": [],
      "stateMutability": "nonpayable",
      "type": "function"
    },
    {
      "inputs": [],
      "name": "getLatestPrice",
      "outputs": [
        {
          "internalType": "uint256",
          "name": "",
          "type": "uint256"
        }
      ],
      "stateMutability": "view",
      "type": "function",
      "constant": true
    },
    {
      "inputs": [
        {
          "internalType": "address",
          "name": "_user",
          "type": "address"
        },
        {
          "internalType": "bool",
          "name": "_status",
          "type": "bool"
        }
      ],
      "name": "ExcludeAccouctFromMinBuy",
      "outputs": [],
      "stateMutability": "nonpayable",
      "type": "function"
    },
    {
      "inputs": [
        {
          "internalType": "uint256",
          "name": "usdAmount",
          "type": "uint256"
        }
      ],
      "name": "buyWithUSDT",
      "outputs": [
        {
          "internalType": "bool",
          "name": "",
          "type": "bool"
        }
      ],
      "stateMutability": "nonpayable",
      "type": "function"
    },
    {
      "inputs": [],
      "name": "buyWithEth",
      "outputs": [
        {
          "internalType": "bool",
          "name": "",
          "type": "bool"
        }
      ],
      "stateMutability": "payable",
      "type": "function",
      "payable": true
    },
    {
      "inputs": [
        {
          "internalType": "uint256",
          "name": "_id",
          "type": "uint256"
        },
        {
          "internalType": "uint256",
          "name": "amount",
          "type": "uint256"
        }
      ],
      "name": "ethBuyHelper",
      "outputs": [
        {
          "internalType": "uint256",
          "name": "ethAmount",
          "type": "uint256"
        }
      ],
      "stateMutability": "view",
      "type": "function",
      "constant": true
    },
    {
      "inputs": [
        {
          "internalType": "uint256",
          "name": "_id",
          "type": "uint256"
        },
        {
          "internalType": "uint256",
          "name": "amount",
          "type": "uint256"
        }
      ],
      "name": "usdtBuyHelper",
      "outputs": [
        {
          "internalType": "uint256",
          "name": "usdPrice",
          "type": "uint256"
        }
      ],
      "stateMutability": "view",
      "type": "function",
      "constant": true
    },
    {
      "inputs": [
        {
          "internalType": "uint256",
          "name": "_id",
          "type": "uint256"
        },
        {
          "internalType": "uint256",
          "name": "amount",
          "type": "uint256"
        }
      ],
      "name": "ethToTokens",
      "outputs": [
        {
          "internalType": "uint256",
          "name": "_tokens",
          "type": "uint256"
        }
      ],
      "stateMutability": "view",
      "type": "function",
      "constant": true
    },
    {
      "inputs": [
        {
          "internalType": "uint256",
          "name": "_id",
          "type": "uint256"
        },
        {
          "internalType": "uint256",
          "name": "amount",
          "type": "uint256"
        }
      ],
      "name": "usdtToTokens",
      "outputs": [
        {
          "internalType": "uint256",
          "name": "_tokens",
          "type": "uint256"
        }
      ],
      "stateMutability": "view",
      "type": "function",
      "constant": true
    },
    {
      "inputs": [
        {
          "internalType": "uint256",
          "name": "_id",
          "type": "uint256"
        }
      ],
      "name": "unlockToken",
      "outputs": [],
      "stateMutability": "view",
      "type": "function",
      "constant": true
    },
    {
      "inputs": [
        {
          "internalType": "address",
          "name": "user",
          "type": "address"
        },
        {
          "internalType": "uint256",
          "name": "_id",
          "type": "uint256"
        }
      ],
      "name": "claimableAmount",
      "outputs": [
        {
          "internalType": "uint256",
          "name": "",
          "type": "uint256"
        }
      ],
      "stateMutability": "view",
      "type": "function",
      "constant": true
    },
    {
      "inputs": [
        {
          "internalType": "uint256",
          "name": "_id",
          "type": "uint256"
        }
      ],
      "name": "claimAmount",
      "outputs": [
        {
          "internalType": "bool",
          "name": "",
          "type": "bool"
        }
      ],
      "stateMutability": "nonpayable",
      "type": "function"
    },
    {
      "inputs": [
        {
          "internalType": "uint256[]",
          "name": "_id",
          "type": "uint256[]"
        }
      ],
      "name": "claimMultiple",
      "outputs": [
        {
          "internalType": "bool",
          "name": "",
          "type": "bool"
        }
      ],
      "stateMutability": "nonpayable",
      "type": "function"
    },
    {
      "inputs": [
        {
          "internalType": "address",
          "name": "_token",
          "type": "address"
        },
        {
          "internalType": "uint256",
          "name": "amount",
          "type": "uint256"
        }
      ],
      "name": "WithdrawTokens",
      "outputs": [],
      "stateMutability": "nonpayable",
      "type": "function"
    },
    {
      "inputs": [
        {
          "internalType": "uint256",
          "name": "amount",
          "type": "uint256"
        }
      ],
      "name": "WithdrawContractFunds",
      "outputs": [],
      "stateMutability": "nonpayable",
      "type": "function"
    }
  ],
  "bytecode": "0x60806040523480156200001157600080fd5b5060405162002b6338038062002b6383398101604081905262000034916200011c565b60016000556200004433620000ad565b600780546001600160a01b039586166001600160a01b031991821617909155600d805493861693821693909317909255600c55600680549290931691811691909117909155670de0b6b3a7640000600455620f424060035560058054909116331790556200016e565b600180546001600160a01b038381166001600160a01b0319831681179093556040519116919082907f8be0079c531659141344cd1fd0a4f28419497f9722a3daafe3b4186f6b6457e090600090a35050565b80516001600160a01b03811681146200011757600080fd5b919050565b600080600080608085870312156200013357600080fd5b6200013e85620000ff565b93506200014e60208601620000ff565b92506200015e60408601620000ff565b6060959095015193969295505050565b6129e5806200017e6000396000f3fe60806040526004361061022f5760003560e01c8063833cde521161012e578063cd1704a8116100ab578063f2fde38b1161006f578063f2fde38b14610737578063f309fed914610757578063f597573f14610777578063fb4aa0a114610797578063fe9f676e146107b757600080fd5b8063cd1704a81461060f578063d01608c11461062f578063dd2e0ac01461064f578063e18e84f91461066f578063e6ab14341461068557600080fd5b80638e15f473116100f25780638e15f473146105435780639051cce914610558578063a43be57b14610578578063a7c601601461058d578063b04c7346146105ad57600080fd5b8063833cde52146104975780638561c315146104cf5780638c7a0b2f146104ef5780638d79e66d1461050f5780638da5cb5b1461052557600080fd5b806339764363116101bc5780636fb4adff116101805780636fb4adff14610402578063715018a614610422578063718a1962146104375780637540a2971461045757806379b8d9381461047757600080fd5b8063397643631461037657806348bf4fcf1461038c5780634a6413f7146103a2578063582b5723146103c2578063680f2e4f146103e257600080fd5b80630fbfcf37116102035780630fbfcf37146102d057806311b5444f146102f05780631ed0c954146102f85780632127fe041461032857806323b221a01461035657600080fd5b8062dde10e1461023457806303fcd9ac1461027957806304c98b2b1461029b5780630ec809a8146102b0575b600080fd5b34801561024057600080fd5b5061026461024f3660046124a4565b60086020526000908152604090205460ff1681565b60405190151581526020015b60405180910390f35b34801561028557600080fd5b506102996102943660046124e7565b6107d7565b005b3480156102a757600080fd5b5061029961080a565b3480156102bc57600080fd5b506102996102cb36600461251e565b61083d565b3480156102dc57600080fd5b506102996102eb366004612540565b610867565b6102646108d2565b34801561030457600080fd5b5061026461031336600461251e565b600b6020526000908152604090205460ff1681565b34801561033457600080fd5b50610348610343366004612565565b610d33565b604051908152602001610270565b34801561036257600080fd5b506102646103713660046124a4565b610e36565b34801561038257600080fd5b5061034860045481565b34801561039857600080fd5b5061034860035481565b3480156103ae57600080fd5b506102996103bd3660046124a4565b611171565b3480156103ce57600080fd5b506102996103dd3660046124a4565b611251565b3480156103ee57600080fd5b506102996103fd366004612587565b611272565b34801561040e57600080fd5b5061029961041d36600461251e565b6112f6565b34801561042e57600080fd5b5061029961136b565b34801561044357600080fd5b50610348610452366004612565565b61137f565b34801561046357600080fd5b506102996104723660046125b1565b6113cf565b34801561048357600080fd5b50610348610492366004612587565b6114ac565b3480156104a357600080fd5b50600d546104b7906001600160a01b031681565b6040516001600160a01b039091168152602001610270565b3480156104db57600080fd5b506102996104ea36600461251e565b6115be565b3480156104fb57600080fd5b5061029961050a3660046125e3565b611633565b34801561051b57600080fd5b50610348600c5481565b34801561053157600080fd5b506001546001600160a01b03166104b7565b34801561054f57600080fd5b50610348611827565b34801561056457600080fd5b5061026461057336600461260f565b6118be565b34801561058457600080fd5b50610299611981565b34801561059957600080fd5b506102646105a83660046124a4565b6119d4565b3480156105b957600080fd5b506105f46105c8366004612587565b600a60209081526000928352604080842090915290825290208054600182015460029092015490919083565b60408051938452602084019290925290820152606001610270565b34801561061b57600080fd5b5061029961062a3660046124a4565b611fb5565b34801561063b57600080fd5b5061029961064a3660046124a4565b611fc2565b34801561065b57600080fd5b5061029961066a3660046124a4565b61208e565b34801561067b57600080fd5b5061034860025481565b34801561069157600080fd5b506106ef6106a03660046124a4565b6009602052600090815260409020805460018201546002830154600384015460048501546005860154600687015460079097015495969495939492939192909160ff8082169161010090041689565b60408051998a5260208a0198909852968801959095526060870193909352608086019190915260a085015260c0840152151560e0830152151561010082015261012001610270565b34801561074357600080fd5b5061029961075236600461251e565b61212a565b34801561076357600080fd5b50610348610772366004612565565b6121a0565b34801561078357600080fd5b506006546104b7906001600160a01b031681565b3480156107a357600080fd5b506005546104b7906001600160a01b031681565b3480156107c357600080fd5b506103486107d2366004612565565b6121fa565b6107df6122c9565b6001600160a01b03919091166000908152600b60205260409020805460ff1916911515919091179055565b6108126122c9565b600280546000908152600960205260408082204290559154815220600701805460ff19166001179055565b6108456122c9565b600d80546001600160a01b0319166001600160a01b0392909216919091179055565b8160008111801561087a57506002548111155b61089f5760405162461bcd60e51b815260040161089690612684565b60405180910390fd5b6108a76122c9565b5060009182526009602052604090912060070180549115156101000261ff0019909216919091179055565b60006002546000811180156108e957506002548111155b6109055760405162461bcd60e51b815260040161089690612684565b600254610912813461137f565b6000828152600960205260409020544210801590610946575060008281526009602052604090206007015460ff1615156001145b61098c5760405162461bcd60e51b8152602060048201526017602482015276496e76616c69642074696d6520666f7220627579696e6760481b6044820152606401610896565b6000811180156109ad57506000828152600960205260409020600301548111155b6109ef5760405162461bcd60e51b8152602060048201526013602482015272125b9d985b1a59081cd85b1948185b5bdd5b9d606a1b6044820152606401610896565b6109f7612323565b600454600090610a0790806126c6565b600354610a12611827565b610a1c90346126c6565b610a2691906126c6565b610a3091906126dd565b6002546000908152600960205260409020600581015460069091015491925090610a5b9083906126ff565b1115610a795760405162461bcd60e51b815260040161089690612712565b60025460009081526008602052604090205460ff1615610acc5760405162461bcd60e51b815260206004820152600e60248201526d141c995cd85b19481c185d5cd95960921b6044820152606401610896565b60025460009081526009602052604090206007015460ff161515600114610b315760405162461bcd60e51b8152602060048201526019602482015278141c995cd85b19481a5cc81b9bdd081858dd1a5d99481e595d603a1b6044820152606401610896565b6000610b3f600254836121a0565b336000908152600b602052604081205491925060ff90911615159003610ba857600c54811015610ba85760405162461bcd60e51b8152602060048201526014602482015273496e73756666696369656e7420616d6f756e742160601b6044820152606401610896565b60025460009081526009602052604081206003018054839290610bcc908490612758565b909155505060025460009081526009602052604081206006018054849290610bf59084906126ff565b9091555050336000908152600a60209081526040808320600254845290915290206001015415610c5957336000908152600a60209081526040808320600254845290915281206001018054839290610c4e9084906126ff565b90915550610cc09050565b6040518060600160405280600081526020018281526020016000815250600a6000610c813390565b6001600160a01b031681526020808201929092526040908101600090812060028054835290845290829020845181559284015160018401559201519101555b600554610cd6906001600160a01b03163461237c565b60025460408051838152346020820152428183015290516000929133917f4d8aead3491b7eba4b5c7a65fc17e493b9e63f9e433522fc5f6a85a168fc9d369181900360600190a4600195505050610d2d6001600055565b50505090565b600082600081118015610d4857506002548111155b610d645760405162461bcd60e51b815260040161089690612684565b600084815260096020526040812060020154610d8090856126c6565b9050600d60009054906101000a90046001600160a01b03166001600160a01b031663313ce5676040518163ffffffff1660e01b8152600401602060405180830381865afa158015610dd5573d6000803e3d6000fd5b505050506040513d601f19601f82011682018060405250810190610df9919061276b565b610e0490600a612872565b610e0c611827565b610e1691906126c6565b600454610e2390836126c6565b610e2d91906126dd565b95945050505050565b600081600081118015610e4b57506002548111155b610e675760405162461bcd60e51b815260040161089690612684565b6000610e7333856114ac565b905060008111610eb95760405162461bcd60e51b815260206004820152601160248201527016995c9bc818db185a5b48185b5bdd5b9d607a1b6044820152606401610896565b600d546001600160a01b0316610f115760405162461bcd60e51b815260206004820152601d60248201527f50726573616c6520746f6b656e2061646472657373206e6f74207365740000006044820152606401610896565b600d546040516370a0823160e01b81523060048201526001600160a01b03909116906370a0823190602401602060405180830381865afa158015610f59573d6000803e3d6000fd5b505050506040513d601f19601f82011682018060405250810190610f7d9190612881565b811115610fd65760405162461bcd60e51b815260206004820152602160248201527f4e6f7420656e6f75676820746f6b656e7320696e2074686520636f6e747261636044820152601d60fa1b6064820152608401610896565b60008481526009602052604090206007015460ff6101009091041615156001146110385760405162461bcd60e51b8152602060048201526013602482015272436c61696d206973206e6f7420656e61626c6560681b6044820152606401610896565b336000908152600a60209081526040808320878452909152812042815560020180548392906110689084906126ff565b9091555050600d5460405163a9059cbb60e01b8152336004820152602481018390526000916001600160a01b03169063a9059cbb906044016020604051808303816000875af11580156110bf573d6000803e3d6000fd5b505050506040513d601f19601f820116820180604052508101906110e3919061289a565b90508061112a5760405162461bcd60e51b8152602060048201526015602482015274151bdad95b881d1c985b9cd9995c8819985a5b1959605a1b6044820152606401610896565b60408051838152426020820152869133917fe49649ad7d04a14b0d2a43dae89f207c0822143ff6f88a6480e88907e4e5c548910160405180910390a3506001949350505050565b8060008111801561118457506002548111155b6111a05760405162461bcd60e51b815260040161089690612684565b6111a86122c9565b60008281526008602052604090205460ff16156111f85760405162461bcd60e51b815260206004820152600e60248201526d105b1c9958591e481c185d5cd95960921b6044820152606401610896565b60008281526008602052604090819020805460ff191660011790555182907f927e6cd2dce24f32508868820cdc35f09d9de0f4b44e945114110125196fba9f906112459042815260200190565b60405180910390a25050565b6112596122c9565b60055461126f906001600160a01b03168261237c565b50565b61127a6122c9565b60055460405163a9059cbb60e01b81526001600160a01b039182166004820152602481018390529083169063a9059cbb906044016020604051808303816000875af11580156112cd573d6000803e3d6000fd5b505050506040513d601f19601f820116820180604052508101906112f1919061289a565b505050565b6112fe6122c9565b6001600160a01b0381166113495760405162461bcd60e51b8152602060048201526012602482015271496e76616c696420706172616d657465727360701b6044820152606401610896565b600580546001600160a01b0319166001600160a01b0392909216919091179055565b6113736122c9565b61137d6000612452565b565b60008060045460045461139291906126c6565b60035461139d611827565b6113a790866126c6565b6113b191906126c6565b6113bb91906126dd565b90506113c784826121a0565b949350505050565b836000811180156113e257506002548111155b6113fe5760405162461bcd60e51b815260040161089690612684565b6114066122c9565b600084116114435760405162461bcd60e51b815260206004820152600a6024820152695a65726f20707269636560b01b6044820152606401610896565b600083116114895760405162461bcd60e51b815260206004820152601360248201527216995c9bc81d1bdad95b9cc81d1bc81cd95b1b606a1b6044820152606401610896565b506000938452600960205260409093206002810192909255600482015560050155565b6000816000811180156114c157506002548111155b6114dd5760405162461bcd60e51b815260040161089690612684565b6001600160a01b0384166000908152600a602090815260408083208684528252918290208251606081018452815481526001820154928101839052600290910154928101929092526115645760405162461bcd60e51b815260206004820152601060248201526f4e6f7468696e6720746f20636c61696d60801b6044820152606401610896565b60008160400151826020015161157a9190612758565b905060008111610e2d5760405162461bcd60e51b815260206004820152600f60248201526e105b1c9958591e4818db185a5b5959608a1b6044820152606401610896565b6115c66122c9565b6001600160a01b0381166116115760405162461bcd60e51b81526020600482015260126024820152715a65726f20746f6b656e206164647265737360701b6044820152606401610896565b600680546001600160a01b0319166001600160a01b0392909216919091179055565b61163b6122c9565b600083116116785760405162461bcd60e51b815260206004820152600a6024820152695a65726f20707269636560b01b6044820152606401610896565b600082116116be5760405162461bcd60e51b815260206004820152601360248201527216995c9bc81d1bdad95b9cc81d1bc81cd95b1b606a1b6044820152606401610896565b60025460009081526009602052604090206007015460ff16156117235760405162461bcd60e51b815260206004820152601760248201527f50726576696f75732053616c65206973204163746976650000000000000000006044820152606401610896565b60028054906000611733836128b7565b90915550506040805161012081018252600080825260208083018281528385018881526060808601898152608087018a815260a088018a815260c0890188815260e08a01898152610100808c018b8152600280548d5260098c528e8d209d518e55995160018e015597518c8a0155945160038c0155925160048b0155905160058a01555160068901555160079097018054935161ffff1990941697151561ff001916979097179215150291909117909455548451878152918201839052938101919091527f6a00651728a92841411081673eaa4eddbed06d102a590e050c22def40d4dd0b8910160405180910390a2505050565b600080600760009054906101000a90046001600160a01b03166001600160a01b031663feaf968c6040518163ffffffff1660e01b815260040160a060405180830381865afa15801561187d573d6000803e3d6000fd5b505050506040513d601f19601f820116820180604052508101906118a191906128ea565b505050915050806402540be4006118b8919061293a565b92915050565b6000816118fe5760405162461bcd60e51b815260206004820152600e60248201526d0b4cae4de40928840d8cadccee8d60931b6044820152606401610896565b60005b828110156119775761192a84848381811061191e5761191e61296a565b90506020020135610e36565b6119655760405162461bcd60e51b815260206004820152600c60248201526b10db185a5b4819985a5b195960a21b6044820152606401610896565b8061196f816128b7565b915050611901565b5060019392505050565b6119896122c9565b6002546000908152600960205260409020600701805460ff1916600117905560028054600090815260096020526040808220426001909101559154815220600701805460ff19169055565b60006002546000811180156119eb57506002548111155b611a075760405162461bcd60e51b815260040161089690612684565b600254611a1481856121a0565b6000828152600960205260409020544210801590611a48575060008281526009602052604090206007015460ff1615156001145b611a8e5760405162461bcd60e51b8152602060048201526017602482015276496e76616c69642074696d6520666f7220627579696e6760481b6044820152606401610896565b600081118015611aaf57506000828152600960205260409020600301548111155b611af15760405162461bcd60e51b8152602060048201526013602482015272125b9d985b1a59081cd85b1948185b5bdd5b9d606a1b6044820152606401610896565b60025460009081526008602052604090205460ff1615611b445760405162461bcd60e51b815260206004820152600e60248201526d141c995cd85b19481c185d5cd95960921b6044820152606401610896565b60025460009081526009602052604090206007015460ff161515600114611ba95760405162461bcd60e51b8152602060048201526019602482015278141c995cd85b19481a5cc81b9bdd081858dd1a5d99481e595d603a1b6044820152606401610896565b60025460009081526009602052604090206005810154600690910154611bd09087906126ff565b1115611bee5760405162461bcd60e51b815260040161089690612712565b6000611bfc600254876121a0565b9050806009600060025481526020019081526020016000206003016000828254611c269190612758565b909155505060025460009081526009602052604081206006018054889290611c4f9084906126ff565b9091555050336000908152600b602052604081205460ff1615159003611cb857600c54811015611cb85760405162461bcd60e51b815260206004820152601460248201527313195cdcc81d1a185b881b5a5b88185b5bdd5b9d60621b6044820152606401610896565b336000908152600a60209081526040808320600254845290915290206001015415611d1757336000908152600a60209081526040808320600254845290915281206001018054839290611d0c9084906126ff565b90915550611d7e9050565b6040518060600160405280600081526020018281526020016000815250600a6000611d3f3390565b6001600160a01b031681526020808201929092526040908101600090812060028054835290845290829020845181559284015160018401559201519101555b6006546000906001600160a01b031663dd62ed3e336040516001600160e01b031960e084901b1681526001600160a01b039091166004820152306024820152604401602060405180830381865afa158015611ddd573d6000803e3d6000fd5b505050506040513d601f19601f82011682018060405250810190611e019190612881565b905080871115611e5d5760405162461bcd60e51b815260206004820152602160248201527f4d616b65207375726520746f2061646420656e6f75676820616c6c6f77616e636044820152606560f81b6064820152608401610896565b6006546000906001600160a01b0316336005546040516001600160a01b03928316602482015291166044820152606481018a905260840160408051601f198184030181529181526020820180516001600160e01b03166323b872dd60e01b17905251611ec99190612980565b6000604051808303816000865af19150503d8060008114611f06576040519150601f19603f3d011682016040523d82523d6000602084013e611f0b565b606091505b5050905080611f535760405162461bcd60e51b8152602060048201526014602482015273151bdad95b881c185e5b595b9d0819985a5b195960621b6044820152606401610896565b60065460025460408051868152602081018c9052428183015290516001600160a01b039093169233917f4d8aead3491b7eba4b5c7a65fc17e493b9e63f9e433522fc5f6a85a168fc9d36919081900360600190a4506001979650505050505050565b611fbd6122c9565b600c55565b80600081118015611fd557506002548111155b611ff15760405162461bcd60e51b815260040161089690612684565b611ff96122c9565b60008281526008602052604090205460ff166120445760405162461bcd60e51b815260206004820152600a602482015269139bdd081c185d5cd95960b21b6044820152606401610896565b60008281526008602052604090819020805460ff191690555182907ff608654a6d8e1785594639dd55babb61d7ae157382015f904a24224e50333b1d906112459042815260200190565b806000811180156120a157506002548111155b6120bd5760405162461bcd60e51b815260040161089690612684565b6120c56122c9565b6000828152600960205260409020600101544210156121265760405162461bcd60e51b815260206004820152601f60248201527f596f752063616e206f6e6c7920756e6c6f636b206f6e2066696e616c697a65006044820152606401610896565b5050565b6121326122c9565b6001600160a01b0381166121975760405162461bcd60e51b815260206004820152602660248201527f4f776e61626c653a206e6577206f776e657220697320746865207a65726f206160448201526564647265737360d01b6064820152608401610896565b61126f81612452565b6000826000811180156121b557506002548111155b6121d15760405162461bcd60e51b815260040161089690612684565b6003546000858152600960205260409020600201546121f090856126c6565b6113c791906126dd565b60008260008111801561220f57506002548111155b61222b5760405162461bcd60e51b815260040161089690612684565b600d60009054906101000a90046001600160a01b03166001600160a01b031663313ce5676040518163ffffffff1660e01b8152600401602060405180830381865afa15801561227e573d6000803e3d6000fd5b505050506040513d601f19601f820116820180604052508101906122a2919061276b565b6122ad90600a612872565b6000858152600960205260409020600201546121f090856126c6565b6001546001600160a01b0316331461137d5760405162461bcd60e51b815260206004820181905260248201527f4f776e61626c653a2063616c6c6572206973206e6f7420746865206f776e65726044820152606401610896565b6002600054036123755760405162461bcd60e51b815260206004820152601f60248201527f5265656e7472616e637947756172643a207265656e7472616e742063616c6c006044820152606401610896565b6002600055565b804710156123ba5760405162461bcd60e51b815260206004820152600b60248201526a4c6f772062616c616e636560a81b6044820152606401610896565b6000826001600160a01b03168260405160006040518083038185875af1925050503d8060008114612407576040519150601f19603f3d011682016040523d82523d6000602084013e61240c565b606091505b50509050806112f15760405162461bcd60e51b81526020600482015260126024820152711155120814185e5b595b9d0819985a5b195960721b6044820152606401610896565b600180546001600160a01b038381166001600160a01b0319831681179093556040519116919082907f8be0079c531659141344cd1fd0a4f28419497f9722a3daafe3b4186f6b6457e090600090a35050565b6000602082840312156124b657600080fd5b5035919050565b80356001600160a01b03811681146124d457600080fd5b919050565b801515811461126f57600080fd5b600080604083850312156124fa57600080fd5b612503836124bd565b91506020830135612513816124d9565b809150509250929050565b60006020828403121561253057600080fd5b612539826124bd565b9392505050565b6000806040838503121561255357600080fd5b823591506020830135612513816124d9565b6000806040838503121561257857600080fd5b50508035926020909101359150565b6000806040838503121561259a57600080fd5b6125a3836124bd565b946020939093013593505050565b600080600080608085870312156125c757600080fd5b5050823594602084013594506040840135936060013592509050565b6000806000606084860312156125f857600080fd5b505081359360208301359350604090920135919050565b6000806020838503121561262257600080fd5b823567ffffffffffffffff8082111561263a57600080fd5b818501915085601f83011261264e57600080fd5b81358181111561265d57600080fd5b8660208260051b850101111561267257600080fd5b60209290920196919550909350505050565b602080825260129082015271125b9d985b1a59081c1c995cd85b19481a5960721b604082015260600190565b634e487b7160e01b600052601160045260246000fd5b80820281158282048414176118b8576118b86126b0565b6000826126fa57634e487b7160e01b600052601260045260246000fd5b500490565b808201808211156118b8576118b86126b0565b60208082526026908201527f416d6f756e742073686f756c64206265206c657373207468616e206c6566744860408201526506172646361760d41b606082015260800190565b818103818111156118b8576118b86126b0565b60006020828403121561277d57600080fd5b815160ff8116811461253957600080fd5b600181815b808511156127c95781600019048211156127af576127af6126b0565b808516156127bc57918102915b93841c9390800290612793565b509250929050565b6000826127e0575060016118b8565b816127ed575060006118b8565b8160018114612803576002811461280d57612829565b60019150506118b8565b60ff84111561281e5761281e6126b0565b50506001821b6118b8565b5060208310610133831016604e8410600b841016171561284c575081810a6118b8565b612856838361278e565b806000190482111561286a5761286a6126b0565b029392505050565b600061253960ff8416836127d1565b60006020828403121561289357600080fd5b5051919050565b6000602082840312156128ac57600080fd5b8151612539816124d9565b6000600182016128c9576128c96126b0565b5060010190565b805169ffffffffffffffffffff811681146124d457600080fd5b600080600080600060a0868803121561290257600080fd5b61290b866128d0565b945060208601519350604086015192506060860151915061292e608087016128d0565b90509295509295909350565b80820260008212600160ff1b84141615612956576129566126b0565b81810583148215176118b8576118b86126b0565b634e487b7160e01b600052603260045260246000fd5b6000825160005b818110156129a15760208186018101518583015201612987565b50600092019182525091905056fea2646970667358221220618f1b0df277cfbac6faf295642faa5ffc5d7a60d602714d905611a25e35fbdb64736f6c63430008110033",
  "immutableReferences": {},
  "source": "//SPDX-License-Identifier: MIT\n\npragma solidity ^0.8.9;\n\nimport \"@openzeppelin/contracts/token/ERC20/IERC20.sol\";\nimport \"@openzeppelin/contracts/token/ERC20/extensions/IERC20Metadata.sol\";\nimport \"@openzeppelin/contracts/utils/Address.sol\";\nimport \"@openzeppelin/contracts/utils/Context.sol\";\nimport \"@openzeppelin/contracts/access/Ownable.sol\";\nimport \"@openzeppelin/contracts/security/ReentrancyGuard.sol\";\n\ninterface Aggregator {\n    function latestRoundData()\n        external\n        view\n        returns (\n            uint80 roundId,\n            int256 answer,\n            uint256 startedAt,\n            uint256 updatedAt,\n            uint80 answeredInRound\n        );\n}\n\ncontract Sale is ReentrancyGuard, Ownable {\n    uint256 public presaleId;\n    uint256 public USDT_MULTIPLIER;\n    uint256 public ETH_MULTIPLIER;\n    address public fundReceiver;\n\n    struct Presale {\n        uint256 startTime;\n        uint256 endTime;\n        uint256 price;\n        uint256 inSale;\n        uint256 tokensToSell;\n        uint256 UsdtHardcap;\n        uint256 amountRaised;\n        bool Active;\n        bool isEnableClaim;\n    }\n\n    struct ClaimData {\n        uint256 claimAt;\n        uint256 totalAmount;\n        uint256 claimedAmount;\n    }\n\n    IERC20Metadata public USDTInterface;\n    Aggregator internal aggregatorInterface;\n    // https://docs.chain.link/docs/ethereum-addresses/ => (ETH / USD)\n\n    mapping(uint256 => bool) public paused;\n    mapping(uint256 => Presale) public presale;\n    mapping(address => mapping(uint256 => ClaimData)) public userClaimData;\n    mapping(address => bool) public isExcludeMinToken;\n\n    uint256 public MinTokenTobuy;\n    address public SaleToken;\n\n    event PresaleCreated(\n        uint256 indexed _id,\n        uint256 _totalTokens,\n        uint256 _startTime,\n        uint256 _endTime\n    );\n\n    event PresaleUpdated(\n        bytes32 indexed key,\n        uint256 prevValue,\n        uint256 newValue,\n        uint256 timestamp\n    );\n\n    event TokensBought(\n        address indexed user,\n        uint256 indexed id,\n        address indexed purchaseToken,\n        uint256 tokensBought,\n        uint256 amountPaid,\n        uint256 timestamp\n    );\n\n    event TokensClaimed(\n        address indexed user,\n        uint256 indexed id,\n        uint256 amount,\n        uint256 timestamp\n    );\n\n    event PresaleTokenAddressUpdated(\n        address indexed prevValue,\n        address indexed newValue,\n        uint256 timestamp\n    );\n\n    event PresalePaused(uint256 indexed id, uint256 timestamp);\n    event PresaleUnpaused(uint256 indexed id, uint256 timestamp);\n\n    constructor(\n        address _oracle,\n        address _usdt,\n        address _SaleToken,\n        uint256 _MinTokenTobuy\n    ) {\n        aggregatorInterface = Aggregator(_oracle);\n        SaleToken = _SaleToken;\n        MinTokenTobuy = _MinTokenTobuy;\n        USDTInterface = IERC20Metadata(_usdt);\n        ETH_MULTIPLIER = (10**18);\n        USDT_MULTIPLIER =(10**6) ;\n        fundReceiver = msg.sender;\n    }\n\n    function ChangeTokenToSell(address _token) public onlyOwner {\n        SaleToken = _token;\n    }\n\n    function EditMinTokenToBuy(uint256 _amount) public onlyOwner {\n        MinTokenTobuy = _amount;\n    }\n\n    // /**\n    //  * @dev Creates a new presale\n    //  * @param _price Per token price multiplied by (10**18)\n    //  * @param _tokensToSell No of tokens to sell\n    //  */\n    function createPresale(uint256 _price, uint256 _tokensToSell, uint256 _UsdtHardcap)\n        external\n        onlyOwner\n    {\n        require(_price > 0, \"Zero price\");\n        require(_tokensToSell > 0, \"Zero tokens to sell\");\n        require(presale[presaleId].Active == false, \"Previous Sale is Active\");\n\n        presaleId++;\n\n        presale[presaleId] = Presale(\n            0,\n            0,\n            _price,\n            _tokensToSell,\n            _tokensToSell,\n            _UsdtHardcap,\n            0,\n            false,\n            false\n        );\n\n        emit PresaleCreated(presaleId, _tokensToSell, 0, 0);\n    }\n\n    function startPresale() public onlyOwner {\n        presale[presaleId].startTime = block.timestamp;\n        presale[presaleId].Active = true;\n    }\n\n    function endPresale() public onlyOwner {\n        require(\n            presale[presaleId].Active = true,\n            \"This presale is already Inactive\"\n        );\n        presale[presaleId].endTime = block.timestamp;\n        presale[presaleId].Active = false;\n    }\n\n    // @dev enabel Claim amount\n    function enableClaim(uint256 _id, bool _status)\n        public\n        checkPresaleId(_id)\n        onlyOwner\n    {\n        presale[_id].isEnableClaim = _status;\n    }\n\n    // /**\n    //  * @dev Update a new presale\n    //  * @param _price Per USD price should be multiplied with token decimals\n    //  * @param _tokensToSell No of tokens to sell without denomination. If 1 million tokens to be sold then - 1_000_000 has to be passed\n    //  */\n    function updatePresale(\n        uint256 _id,\n        uint256 _price,\n        uint256 _tokensToSell,\n        uint256 _Hardcap\n    ) external checkPresaleId(_id) onlyOwner {\n        require(_price > 0, \"Zero price\");\n        require(_tokensToSell > 0, \"Zero tokens to sell\");\n        presale[_id].price = _price;\n        presale[_id].tokensToSell = _tokensToSell;\n        presale[_id].UsdtHardcap =_Hardcap;\n    }\n\n    /**\n     * @dev To update the fund receiving wallet\n     * @param _wallet address of wallet to update\n\n     */\n    function changeFundWallet(address _wallet) external onlyOwner {\n        require(_wallet != address(0), \"Invalid parameters\");\n        fundReceiver = _wallet;\n    }\n\n    /**\n     * @dev To update the USDT Token address\n     * @param _newAddress Sale token address\n     */\n    function changeUSDTToken(address _newAddress) external onlyOwner {\n        require(_newAddress != address(0), \"Zero token address\");\n        USDTInterface = IERC20Metadata(_newAddress);\n    }\n\n    /**\n     * @dev To pause the presale\n     * @param _id Presale id to update\n     */\n    function pausePresale(uint256 _id) external checkPresaleId(_id) onlyOwner {\n        require(!paused[_id], \"Already paused\");\n        paused[_id] = true;\n        emit PresalePaused(_id, block.timestamp);\n    }\n\n    /**\n     * @dev To unpause the presale\n     * @param _id Presale id to update\n     */\n    function unPausePresale(uint256 _id)\n        external\n        checkPresaleId(_id)\n        onlyOwner\n    {\n        require(paused[_id], \"Not paused\");\n        paused[_id] = false;\n        emit PresaleUnpaused(_id, block.timestamp);\n    }\n\n    /**\n     * @dev To get latest ethereum price in 10**18 format\n     */\n    function getLatestPrice() public view returns (uint256) {\n        (, int256 price, , , ) = aggregatorInterface.latestRoundData();\n        price = (price * (10**10));\n        return uint256(price);\n    }\n\n    modifier checkPresaleId(uint256 _id) {\n        require(_id > 0 && _id <= presaleId, \"Invalid presale id\");\n        _;\n    }\n\n    modifier checkSaleState(uint256 _id, uint256 amount) {\n        require(\n            block.timestamp >= presale[_id].startTime &&\n                presale[_id].Active == true,\n            \"Invalid time for buying\"\n        );\n        require(\n            amount > 0 && amount <= presale[_id].inSale,\n            \"Invalid sale amount\"\n        );\n        _;\n    }\n\n    function ExcludeAccouctFromMinBuy(address _user, bool _status)\n        external\n        onlyOwner\n    {\n        isExcludeMinToken[_user] = _status;\n    }\n\n    /**\n     * @dev To buy into a presale using USDT\n     * @param usdAmount Usdt amount to buy tokens\n     */\n    function buyWithUSDT(uint256 usdAmount)\n        external\n        checkPresaleId(presaleId)\n        checkSaleState(presaleId, usdtToTokens(presaleId, usdAmount))\n        returns (bool)\n    {\n        require(!paused[presaleId], \"Presale paused\");\n        require(presale[presaleId].Active == true, \"Presale is not active yet\");\n        require(presale[presaleId].amountRaised + usdAmount <= presale[presaleId].UsdtHardcap,\n        \"Amount should be less than leftHardcap\");\n\n        uint256 tokens = usdtToTokens(presaleId, usdAmount);\n        presale[presaleId].inSale -= tokens;\n        presale[presaleId].amountRaised += usdAmount;\n\n        if (isExcludeMinToken[msg.sender] == false) {\n            require(tokens >= MinTokenTobuy, \"Less than min amount\");\n        }\n        if (userClaimData[_msgSender()][presaleId].totalAmount > 0) {\n            userClaimData[_msgSender()][presaleId].totalAmount += tokens;\n        } else {\n            userClaimData[_msgSender()][presaleId] = ClaimData(0, tokens, 0);\n        }\n\n        uint256 ourAllowance = USDTInterface.allowance(\n            _msgSender(),\n            address(this)\n        );\n        require(usdAmount <= ourAllowance, \"Make sure to add enough allowance\");\n        (bool success, ) = address(USDTInterface).call(\n            abi.encodeWithSignature(\n                \"transferFrom(address,address,uint256)\",\n                _msgSender(),\n                fundReceiver,\n                usdAmount\n            )\n        );\n        require(success, \"Token payment failed\");\n        emit TokensBought(\n            _msgSender(),\n            presaleId,\n            address(USDTInterface),\n            tokens,\n            usdAmount,\n            block.timestamp\n        );\n        return true;\n    }\n\n    /**\n     * @dev To buy into a presale using ETH\n     */\n    function buyWithEth()\n        external\n        payable\n        checkPresaleId(presaleId)\n        checkSaleState(presaleId, ethToTokens(presaleId, msg.value))\n        nonReentrant\n        returns (bool)\n    {\n        uint256 usdAmount = (msg.value * getLatestPrice() * USDT_MULTIPLIER) / (ETH_MULTIPLIER * ETH_MULTIPLIER);\n        require(presale[presaleId].amountRaised + usdAmount <= presale[presaleId].UsdtHardcap,\n        \"Amount should be less than leftHardcap\");\n\n        require(!paused[presaleId], \"Presale paused\");\n        require(presale[presaleId].Active == true, \"Presale is not active yet\");\n\n        uint256 tokens = usdtToTokens(presaleId, usdAmount);\n        if (isExcludeMinToken[msg.sender] == false) {\n            require(tokens >= MinTokenTobuy, \"Insufficient amount!\");\n        }\n        presale[presaleId].inSale -= tokens;\n        presale[presaleId].amountRaised += usdAmount;\n\n        if (userClaimData[_msgSender()][presaleId].totalAmount > 0) {\n            userClaimData[_msgSender()][presaleId].totalAmount += tokens;\n        } else {\n            userClaimData[_msgSender()][presaleId] = ClaimData(\n                0, // Last claimed at\n                tokens, // total tokens to be claimed\n                0 // claimed amount\n            );\n        }\n\n        sendValue(payable(fundReceiver), msg.value);\n        emit TokensBought(\n            _msgSender(),\n            presaleId,\n            address(0),\n            tokens,\n            msg.value,\n            block.timestamp\n        );\n        return true;\n    }\n\n    /**\n     * @dev Helper funtion to get ETH price for given amount\n     * @param _id Presale id\n     * @param amount No of tokens to buy\n     */\n    function ethBuyHelper(uint256 _id, uint256 amount)\n        external\n        view\n        checkPresaleId(_id)\n        returns (uint256 ethAmount)\n    {\n        uint256 usdPrice = (amount * presale[_id].price);\n        ethAmount = (usdPrice * ETH_MULTIPLIER) / (getLatestPrice() * 10**IERC20Metadata(SaleToken).decimals());\n    }\n\n    /**\n     * @dev Helper funtion to get USDT price for given amount\n     * @param _id Presale id\n     * @param amount No of tokens to buy\n     */\n    function usdtBuyHelper(uint256 _id, uint256 amount)\n        external\n        view\n        checkPresaleId(_id)\n        returns (uint256 usdPrice)\n    {\n        usdPrice = (amount * presale[_id].price) / 10**IERC20Metadata(SaleToken).decimals();\n    }\n\n    /**\n     * @dev Helper funtion to get tokens for eth amount\n     * @param _id Presale id\n     * @param amount No of eth\n     */\n    function ethToTokens(uint256 _id, uint256 amount)\n        public\n        view\n        returns (uint256 _tokens)\n    {\n        uint256 usdAmount = amount * getLatestPrice() * USDT_MULTIPLIER / (ETH_MULTIPLIER * ETH_MULTIPLIER);\n        _tokens = usdtToTokens(_id, usdAmount);\n    }\n\n    /**\n     * @dev Helper funtion to get tokens for given usdt amount\n     * @param _id Presale id\n     * @param amount No of usdt\n     */\n    function usdtToTokens(uint256 _id, uint256 amount)\n        public\n        view\n        checkPresaleId(_id)\n        returns (uint256 _tokens)\n    {\n        _tokens = (amount * presale[_id].price) / USDT_MULTIPLIER;\n    }\n\n    function sendValue(address payable recipient, uint256 amount) internal {\n        require(address(this).balance >= amount, \"Low balance\");\n        (bool success, ) = recipient.call{value: amount}(\"\");\n        require(success, \"ETH Payment failed\");\n    }\n\n    function unlockToken(uint256 _id)\n        public\n        view\n        checkPresaleId(_id)\n        onlyOwner\n    {\n        require(\n            block.timestamp >= presale[_id].endTime,\n            \"You can only unlock on finalize\"\n        );\n    }\n\n    /**\n     * @dev Helper funtion to get claimable tokens for a given presale.\n     * @param user User address\n     * @param _id Presale id\n     */\n    function claimableAmount(address user, uint256 _id)\n        public\n        view\n        checkPresaleId(_id)\n        returns (uint256)\n    {\n        ClaimData memory _user = userClaimData[user][_id];\n\n        require(_user.totalAmount > 0, \"Nothing to claim\");\n        uint256 amount = _user.totalAmount - _user.claimedAmount;\n        require(amount > 0, \"Already claimed\");\n        return amount;\n    }\n\n    /**\n     * @dev To claim token from a presale\n     * @param _id Presale id\n     */\n    function claimAmount(uint256 _id)\n        public\n        checkPresaleId(_id)\n        returns (bool)\n    {\n        uint256 amount = claimableAmount(msg.sender, _id);\n        \n        require(amount > 0, \"Zero claim amount\");\n        require(\n            SaleToken != address(0),\n            \"Presale token address not set\"\n        );\n        require(\n            amount <= IERC20(SaleToken).balanceOf(address(this)),\n            \"Not enough tokens in the contract\"\n        );\n\n        require((presale[_id].isEnableClaim == true), \"Claim is not enable\");\n\n        userClaimData[msg.sender][_id].claimAt = block.timestamp;\n\n        userClaimData[msg.sender][_id].claimedAmount += amount;\n\n        bool status = IERC20(SaleToken).transfer(msg.sender, amount);\n        require(status, \"Token transfer failed\");\n        emit TokensClaimed(msg.sender, _id, amount, block.timestamp);\n\n        return true;\n    }\n\n    /**\n     * @dev To claim tokens from a multiple presale\n     * @param _id Presale id\n     */\n    function claimMultiple(uint256[] calldata _id) external returns (bool) {\n        require(_id.length > 0, \"Zero ID length\");\n        for (uint256 i; i < _id.length; i++) {\n            require(claimAmount(_id[i]), \"Claim failed\");\n        }\n        return true;\n    }\n\n    function WithdrawTokens(address _token, uint256 amount) external onlyOwner {\n        IERC20(_token).transfer(fundReceiver, amount);\n    }\n\n    function WithdrawContractFunds(uint256 amount) external onlyOwner {\n        sendValue(payable(fundReceiver), amount);\n    }\n}",
  "sourcePath": "D:\\Presale\\contracts\\Presale.sol",
  "compiler": {
    "name": "solc",
    "version": "0.8.17+commit.8df45f5f.Emscripten.clang"
  },
  "schemaVersion": "3.4.11",
  "updatedAt": "2022-12-27T10:59:40.917Z",
  "networkType": "ethereum",
  "devdoc": {
    "kind": "dev",
    "methods": {
      "buyWithEth()": {
        "details": "To buy into a presale using ETH"
      },
      "buyWithUSDT(uint256)": {
        "details": "To buy into a presale using USDT",
        "params": {
          "usdAmount": "Usdt amount to buy tokens"
        }
      },
      "changeFundWallet(address)": {
        "details": "To update the fund receiving wallet",
        "params": {
          "_wallet": "address of wallet to update"
        }
      },
      "changeUSDTToken(address)": {
        "details": "To update the USDT Token address",
        "params": {
          "_newAddress": "Sale token address"
        }
      },
      "claimAmount(uint256)": {
        "details": "To claim token from a presale",
        "params": {
          "_id": "Presale id"
        }
      },
      "claimMultiple(uint256[])": {
        "details": "To claim tokens from a multiple presale",
        "params": {
          "_id": "Presale id"
        }
      },
      "claimableAmount(address,uint256)": {
        "details": "Helper funtion to get claimable tokens for a given presale.",
        "params": {
          "_id": "Presale id",
          "user": "User address"
        }
      },
      "ethBuyHelper(uint256,uint256)": {
        "details": "Helper funtion to get ETH price for given amount",
        "params": {
          "_id": "Presale id",
          "amount": "No of tokens to buy"
        }
      },
      "ethToTokens(uint256,uint256)": {
        "details": "Helper funtion to get tokens for eth amount",
        "params": {
          "_id": "Presale id",
          "amount": "No of eth"
        }
      },
      "getLatestPrice()": {
        "details": "To get latest ethereum price in 10**18 format"
      },
      "owner()": {
        "details": "Returns the address of the current owner."
      },
      "pausePresale(uint256)": {
        "details": "To pause the presale",
        "params": {
          "_id": "Presale id to update"
        }
      },
      "renounceOwnership()": {
        "details": "Leaves the contract without owner. It will not be possible to call `onlyOwner` functions anymore. Can only be called by the current owner. NOTE: Renouncing ownership will leave the contract without an owner, thereby removing any functionality that is only available to the owner."
      },
      "transferOwnership(address)": {
        "details": "Transfers ownership of the contract to a new account (`newOwner`). Can only be called by the current owner."
      },
      "unPausePresale(uint256)": {
        "details": "To unpause the presale",
        "params": {
          "_id": "Presale id to update"
        }
      },
      "usdtBuyHelper(uint256,uint256)": {
        "details": "Helper funtion to get USDT price for given amount",
        "params": {
          "_id": "Presale id",
          "amount": "No of tokens to buy"
        }
      },
      "usdtToTokens(uint256,uint256)": {
        "details": "Helper funtion to get tokens for given usdt amount",
        "params": {
          "_id": "Presale id",
          "amount": "No of usdt"
        }
      }
    },
    "version": 1
  },
  "userdoc": {
    "kind": "user",
    "methods": {},
    "version": 1
  }
}